:400000000080002011000000E9040000E904000008B5044B1A6803F53F5302331A6000F06BFA00BFFA46004010B5054C237833B9044B13B10448AFF300800123237010BD38
:400040004081FF1F00000000541B0000084B10B51BB108490848AFF300800848036803B910BD074B002BFBD0BDE81040184700BF000000004481FF1F541B0000C880FF1F34
:400080000000000008B562B600F0C6F800F09CFD002008BD0023C0F8CC30C0F8C830C0F8D030704730B4D0F8C840631CD0F8CC50AB420BD0032902D100EB44046254C0F8DA
:4000C000C830642B02D10023C0F8C83030BC704708B501F069FC89281DD00F4B1B680F4A134003D5013B63F001030133012B01D0002100E001218B2809D100220321084814
:40010000FFF7D0FF044A13680133136008BD02460348FFF7C7FF08BD6081FF1F01000080E4AAFF1F08B501F02BFC00F0DFFA034801F080FC0248FFF7ADFF08BDD1000000AD
:40014000E4AAFF1F094B0A4A1A600A4A5A600A4A9A600A4ADA600A4B0A4A1A600A4A5A600A4A9A600A4ADA60704700BFD4AAFF1F25060000BD05000041060000E50500008A
:40018000B0AAFF1FC50600005D060000E10600008506000008B510B1012804D008BD044B1B68984708BD034B1B68984708BD00BFD4AAFF1FB0AAFF1F08B5642900D9642181
:4001C00010B1012805D008BD044BDB680846984708BD034BDB680846984708BDD4AAFF1FB0AAFF1F38B5FFF7ADFF094C2079FFF7D1FF084D29782079FFF7DEFF6079FFF7EC
:40020000C9FF69786079FFF7D7FFFFF78BFF38BDCC80FF1F5C81FF1F08B500F07BFAFFF7E1FF002203210A2001F02AF8084B186000220221052001F023F8064B18600022EF
:4002400002210A2001F01CF8034B186008BD00BF54ABFF1F6CABFF1F58ABFF1FFEE700BFF0B40022174611E050F82760F3B226F0FF0608E001EB420511F812406D78A555D3
:400280000132013BDBB2002BF4D10137212FEBD9F0BC7047064B1B78DBB203F00701054A11701B09013213704422034B1A707047CF0100496E5800407658004008B50A465E
:4002C000002101F03EFC08BD38B517222B4B1A8018232B4A1370332102321180023213704FF41C7227490A8002310B7002310A80254A13700222254B1A7008224FF04023A2
:400300001A70032103F500731970214B1B78DBB220490B70204B1A8041F25122023B1A80002419250CE01D4B1B7803F0010343EA440404F003044FF4F07001F089FB013D23
:400340000DB1032CEFD115B90320FFF787FF144B4FF480721A8007221A70002211490A704820023108701A700222033B1A700E4A137843F00F03137038BD00BF80400040A4
:4003800082400040884000408E4000400043004008010049A146004022420040254200400440004006400040A243004008B501F0BDFB08BD38B572B6384A137843F0040328
:4003C000137000240CE0364D630019194A0011462A44084691882858FFF770FF0134E4B2092CF0D900240CE02D48A20011194B000344B3F84420196CD86BFFF7D7FF013473
:40040000E4B2032CF0D927494FF09040FFF728FF254A137843F0020313701032137843F002031370214C237843F040032370A2F58632513A137843F01003137008221C4987
:400440001C48FFF7B3FF0A221B491C48FFF7AEFF08221B491B48FFF7A9FF08221A491B48FFF7A4FF0A221A491A48FFF79FFF1A4A137843F008031370184D61232B70FFF712
:4004800023FF81232B700122154B1A70FFF702FF0E2221461348FFF789FF38BDE8460040581B00008800004803500140A0430040480B004802510040500B0048C0510040E8
:4004C0005C0B004812510040640B0048225100406C0B004830510040224300400048004004000840B043004008B501F0F3FA03680C2B00D1FEE7FEE708B5104E104D16E0CE
:4005000029686B68AC68002204E051F8040B43F8040B0432A242F8D1E868002203E0002143F8041B04328242F9D11035013E002EE6D101F0D5FAFFF7A5FDFEE7010000007D
:40054000FC1B000008B5104A104B1A60104A136843F40073136000230AE0032B03D80D4A52F8231000E00C490C4A42F8231001332F2BF2D90A4B1A780A4B1A70074A0A4BDF
:400580001A60FFF717FF08BD0004FA050CED00E014ED00E000000000E90400000080FF1FBC760040C080FF1F08ED00E0024A137843F080031370704777640040024A13784A
:4005C00003F07F031370704777640040014B1870704700BF02640040014B1870704700BF42640040014B1870704700BF2264004008B50B4A137803F0C00343F009031370EC
:400600001B32137843F0010313706320FFF7DEFF6320FFF7E1FF3220FFF7E4FF08BD00BF7764004008B5054B1B7823B9FFF7E0FF0122024B1A70FFF7B9FF08BD6481FF1FEE
:40064000014B1878704700BF22640040024A137843F080031370704779650040024A137803F07F031370704779650040014B1870704700BF09650040014B1870704700BF97
:4006800049650040014B1870704700BF2965004008B50B4A137803F0C00343F0090313702032137843F0010313706320FFF7DEFF6320FFF7E1FF3220FFF7E4FF08BD00BF2A
:4006C0007965004008B5054B1B7823B9FFF7E0FF0122024B1A70FFF7B9FF08BD6581FF1F014B1878704700BF296500407222074B1A700023064A13700621613A11704721E9
:400700001032117002F5AA7213707047836400408464004008B506490B2001F05DF905490E2001F059F904490F2001F055F908BDA1070000010800004508000082B000234A
:4007400001934FF0040383F31188BFF36F8FBFF34F8F019B002BFCD002B0704706480068006880F3088862B661B6BFF34F8FBFF36F8F00DF00BF000008ED00E04FF080731F
:4007800040F8043C21F0010140F8081C034B40F80C3C40F8202C4038704700BF3D070000074B19680868B0E8F00F80F30988BFF36F8F4FF0000080F311884EF00D0E7047E5
:4007C0004082FF1F4FF0040383F31188BFF36F8FBFF34F8F024A136801331360704700BFD480FF1F034A1368013B13600BB983F311887047D480FF1F0000000000000000BB
:40080000EFF30980BFF36F8F0D4B1A6820E9F00F10602DE908404FF0040080F3118800F0F3FA4FF0000080F31188BDE8084019680868B0E8F00F80F30988BFF36F8F704796
:400840004082FF1F08B54FF0040383F31188BFF36F8FBFF34F8F00F0F7F918B14FF08052024B1A60002383F3118808BD04ED00E0054B00221A6005490A6045F6BF51044AC0
:40088000116007221A60704710E000E018E000E014E000E010B5094B1A681A601A681A60FFF7E6FF0024064B1C60FFF757FF00F0ABFAFFF743FF204610BD00BF20ED00E01C
:4008C000D480FF1F074B9B6A1B6823B94FF0FF32044BDA627047034B9A6AD2681268DA62704700BF6881FF1F10B50446006B01F0EFF8204601F0ECF810BD00BF2DE9F843F5
:4009000080469946089D099F0A9C236B02F18042013A03EB820626F0070641B90FE0D05CE11881F83400D15C29B1013301E00A4600230F2BF3D9002384F8433002E00023A1
:4009400084F83430042D00D90425E562201D00F055FB04F1180000F051FB2461C5F10505A561646200236364A364E36423656365A36584F85C304A4641463046FFF7FEFE2F
:40098000206007B13C60BDE8F88300BF70B5002407E004EB840293001048184400F022FB0134042CF5D90E4C04F19406304600F019FB04F1A805284600F014FB04F11400DD
:4009C00000F010FB04F1BC0000F00CFB204600F009FBA662C4F8D05070BD00BF9881FF1F6881FF1F38B50446FFF7ECFE264BD3F8D4200132C3F8D420D3F8D8304BB9224B7F
:400A0000C3F8D840D3F8D430012B10D1FFF7BEFF0DE01D4BD3F8DC304BB91B4BD3F8D830DA6AE36A9A4202D8174BC3F8D840164AD2F8E0300133C2F8E030E36AD2F8E4201C
:400A4000934202D9104AC2F8E4300F4D05F1300003EB83039A00211D104400F0D3FAFFF7C1FED5F8DC306BB1D5F8D830DA6AE36A9A4207D24FF08052044B1A60BFF34F8F90
:400A8000BFF36F8F38BD00BF6881FF1F04ED00E038B517E0FFF796FE0D4CD4F8C830DD68281D00F0D5FAD4F8D430013BC4F8D430D4F8E830013BC4F8E830FFF793FE284671
:400AC000FFF712FF024BD3F8E830002BE2D138BD6881FF1F08B5FFF7DBFF064B1B6B012BF9D94FF08052044B1A60BFF34F8FBFF36F8FF0E76881FF1F04ED00E070B504464B
:400B00000E46174BD3F8EC50D3F8D800043000F09FFAB4F1FF3F07D136B11148D0F8D810043100F06FFA70BD2C440D4BD3F8D8305C60A54208D90A4BD3F8D000D3F8D81070
:400B4000043100F06BFA70BD054DA86AD5F8D810043100F063FAEB6A9C4200D2EC6270BD6881FF1F2DE9F04385B006460F4615469846900000F07CFF60B18146602000F001
:400B800077FF044610B1C0F8309004E0484600F09FFF00E000248CB10023039302940D9B01930C9B009343462A4639463046FFF7A5FE2046FFF716FF012001E04FF0FF30CE
:400BC00005B0BDE8F08300BF00B583B0124B019300230093802211491148FFF7C3FF012801D100F061FD012813D14FF0040383F31188BFF36F8FBFF34F8F0A4B4FF0FF321D
:400C0000DA620122C3F8DC200022C3F8EC20FFF741FE03B05DF804FB5C82FF1FBC1B0000D50A00006881FF1F034AD2F8F0300133C2F8F030704700BF6881FF1F014BD3F8E7
:400C4000EC0070476881FF1F2DE9F041374BD3F8F030002B5BD1354BD3F8EC700137C3F8EC7067B99A6AD3F8D0109962C3F8D020D3F8F8200132C3F8F820FFF723FE2B4BDE
:400C8000DB6A9F4205D24FF000083BE04FF0010801E04FF00008254B9B6A1B6823B94FF0FF32224BDA622DE0204B9B6ADB68DC6863689F4202D21D4AD36223E0261D30469C
:400CC00000F0C6F9A36A1BB104F1180000F0C0F9E36A164AD2F8E420934202D9134AC2F8E430124D05F1300003EB83039A003146104400F087F9E26AD5F8D830DB6A9A4250
:400D0000C4D2C8E7094BD3F8FC304BB90AE0074AD2F800310133C2F800314FF0000801E04FF001084046BDE8F08100BF6881FF1F70B5FFF747FD324BD3F8F020013AC3F84B
:400D4000F020D3F8F030002B52D12D4BD3F8D4303BBB00244FE02A4D2B6ADC6804F1180000F076F9261D304600F072F9E36AD5F8E420934201D9C5F8E430214D05F1300098
:400D800003EB83039A003146104400F03BF9E26AD5F8D830DB6A9A4204D30122C5F8FC2000E00024164B5B69002BD4D10CB1FFF789FD134BD3F8004164B1FFF745FF18B16D
:400DC00001220F4BC3F8FC20013CF6D100220C4BC3F800210A4BD3F8FC305BB14FF08052084B1A60BFF34F8FBFF36F8F012402E0002400E00024FFF7F5FC204670BD00BF68
:400E00006881FF1F04ED00E01E4BD3F8F03023B101221C4BC3F8FC2070471A4B0022C3F8FC20D3F8E43000E0013B03EB83018A0014490A44126B002AF6D010B40A46990080
:400E4000CC18A0001044446B6468446302F1300019448A0008320244944206D1606803EB83018A0007490A445063064903EB830082000A44526BD268C1F8D820C1F8E43027
:400E800010BC70476881FF1F10B50C46054BD3F8D810183100F0C2F801212046FFF72EFE10BD00BF6881FF1F38B50D461446074BD3F8D810183100F0A5F80CB14FF0FF35B9
:400EC00021462846FFF71AFE38BD00BF6881FF1F38B5C368DC6804F11805284600F0B8F8154BD3F8F030ABB9251D284600F0B0F8E36A114AD2F8E420934202D90E4AC2F8A9
:400F0000E43003EB83039A0029460C48104400F079F803E029460A4800F074F8E26A064BD3F8D830DB6A9A4204D90120024BC3F8FC0038BD002038BD6881FF1F9881FF1F3C
:400F40007C81FF1F034BD3F8F8200260D3F8EC30436070476881FF1FF8B504460D46FFF731FC134BD3F8EC106268881A2B68B3F1FF3F18D027680E4ED6F8F860B74205D041
:400F8000914203D300232B6001240DE0984206D21B1A2B602046FFF7D5FF002404E000232B60012400E00024FFF71CFC2046F8BD6881FF1F0122024BC3F8FC20704700BF5A
:400FC0006881FF1F064BD3F8DC302BB1044BD3F8F0301BB90220704701207047002070476881FF1F00F1080343604FF0FF328260C360036100230360704700BF002303614E
:40100000704700BF43684B609A688A609A68516099600861036801330360704730B40D68B5F1FF3F01D1026907E000F1080200E01A4653681C68A542FAD253684B6099603D
:401040008A605160086103680133036030BC704703694268816891608268416851605A68904201D182685A60002202611A68013A1A601868704700BF10B50446FFF7A2FB35
:40108000A26BE36B9A4201D1012400E00024FFF7A9FB204610BD00BF10B50446FFF792FBA36B0BB9012400E00024FFF79BFB204610BD00BF70B504461646856B026CFAB193
:4010C00066B9406800F032FD6268236C13446360A268934214D32368636011E0C06800F025FD236C5B42E2681A44E26021688A4202D2A2681344E360022E01D105B1013D7F
:401100000135A563002070BD70B582B00190846CA26BE36B9A4218D294F845506DB2002201A92046FFF7C6FF0646B5F1FF3F07D1636A6BB104F12400FFF7CAFE38B907E05E
:4011400001356DB284F8455002E0002600E00126304602B070BD00BF026C72B110B5C3681344C3608468A34201D30368C3600C46C168204600F0DAFC10BD704738B5054655
:40118000FFF720FB95F8454064B213E0AB6C33B12846FFF7B9FF58B1FFF70CFF08E06B6A53B105F12400FFF793FE08B1FFF702FF013C64B2002CE9DCFF2385F84530FFF782
:4011C00011FBFFF7FFFA95F8444064B20AE02B6953B105F11000FFF77BFE08B1FFF7EAFE013C64B2002CF2DCFF2385F84430FFF7F9FA38BD38B504460D46FFF7E3FA21681B
:40120000E26B236C03FB0210A0600020A0636160013A02FB0313E360FF2384F8443084F845307DB92369ABB104F11000FFF750FE80B14FF08052094B1A60BFF34F8FBFF391
:401240006F8F07E004F11000FFF7CCFE04F12400FFF7C8FEFFF7C6FA012038BD04ED00E010B5029C0B4609B9246000E02260E063236401212046FFF7BDFF0023A36410BDFB
:40128000F0B583B005460E46174601FB00F04C3000F0EEFB044638B100903B4600F14C0231462846FFF7DCFF204603B0F0BD00BFF0B585B004460F4601921E460025FFF7D0
:4012C00081FAA26BE36B9A4201D3022E34D1A56B324639462046FFF7EDFEA36C7BB1022E00D12DBB2046FFF70FFF08B34FF080523A4B1A60BFF34F8FBFF36F8F18E0636A87
:401300006BB104F12400FFF7E3FD88B14FF08052324B1A60BFF34F8FBFF36F8F08E038B14FF080522D4B1A60BFF34F8FBFF36F8FFFF758FA01204EE0019B1BB9FFF752FAC4
:40134000002048E01DB902A8FFF7FCFD0125FFF749FAFFF769FCFFF735FA94F844305BB2B3F1FF3F02D1002384F8443094F845305BB2B3F1FF3F02D1002384F84530FFF735
:4013800031FA01A902A8FFF7E7FDF0B92046FFF773FEA0B1019904F11000FFF775FD2046FFF7ECFEFFF7C4FC002888D14FF080520A4B1A60BFF34F8FBFF36F8F7FE720469D
:4013C000FFF7DCFEFFF7B4FC79E72046FFF7D6FEFFF7AEFC002005B0F0BD00BF04ED00E02DE9F843EFF311874FF0040484F31188BFF36F8FBFF34F8F856BC46BA54201D3F9
:40140000022B33D11E469046054690F8454064B2D0F838901A46FFF74DFEB4F1FF3F1FD1AB6C7BB1022E02D1B9F1000F20D12846FFF76AFEF0B1B8F1000F1DD00120C8F8EC
:40144000000020E06B6ACBB105F12400FFF740FDB0B1B8F1000F15D00120C8F8000012E0013464B285F8454001200CE000200AE0012008E0012006E0012004E0012002E081
:40148000012000E0012087F31188BDE8F88300BFF0B585B004460F4601920026FFF792F9A56BC5B139462046FFF756FE013DA563236963B104F11000FFF70AFD38B14FF0A0
:4014C0008052304B1A60BFF34F8FBFF36F8FFFF789F9012053E0019B1BB9FFF783F900204DE01EB902A8FFF72DFD0126FFF77AF9FFF79AFBFFF766F994F844305BB2B3F128
:40150000FF3F02D1002384F8443094F845305BB2B3F1FF3F02D1002384F84530FFF762F901A902A8FFF718FDF0B92046FFF7B4FDA0B1019904F12400FFF7A6FC2046FFF752
:401540001DFEFFF7F5FB0028A8D14FF080520D4B1A60BFF34F8FBFF36F8F9FE72046FFF70DFEFFF7E5FB99E72046FFF707FEFFF7DFFB2046FFF790FD00288FD0002005B0ED
:40158000F0BD00BF04ED00E000230BE0074A52F8332032B9054A42F8331002EBC303586070470133092BF1D9704700BF70ABFF1F70B504460D461646FFF704F994F8443027
:4015C0005BB2B3F1FF3F02D1002384F8443094F845305BB2B3F1FF3F02D1002384F84530FFF700F9A36B2BB93246294604F12400FFF75AFC2046FFF7C1FD70BD064B1A68F8
:4016000013680BB9012300E00023036013B9D36818687047002070476C82FF1F08B54160006191420AD8D21A83699A4211D2011D0A4B5868FFF7F2FC002008BD9A4201D20A
:40164000994208D2011D054B1868FFF7E7FC002008BD012008BD012008BD00BF6C82FF1F70B5FFF7AFF80E4B9B68B3B90C4C04F10C063046FFF7B6FC04F120052846FFF7ED
:40168000B1FC2660656000220C210A20FFF7F8FDA06010B10349FFF777FFFFF7A3F870BD6C82FF1FC41B000000B583B0FFF7D8FF084B9B6853B1084B0193032300930023DA
:4016C000802206490648FFF74DFA00E0002003B05DF804FB6C82FF1FA082FF1FCC1B00006919000030B585B0134CA56805B31C46019102920390052913DCFFF763FC0228BD
:4017000007D10023089A01A90B488068FFF7D0FD0FE000231A4601A907488068FFF7C8FD07E00023224601A92846FFF759FE00E0002005B030BD00BF6C82FF1F70B582B0BB
:4017400021E0DB681E68DC68251D2846FFF780FC236A2046984794F8243013F0040F12D0A36933449E4207D26360246129460B4B1868FFF753FC06E0002100910B46324620
:401780002046FFF7AFFF054B1B681A68002AD8D1024A51681160536002B070BD6C82FF1F38B50546FFF74AFA0446074B9B6B984204D2FFF7C3FF01232B6001E000232B6029
:4017C000014B9C63204638BD6C82FF1F70B582B005460E46124B1B68DB68DC68201DFFF737FC94F8243013F0040F0FD0A1692B46324629442046FFF711FF58B10021009118
:401800000B462A462046FFF76DFF03E023F0010384F82430236A2046984702B070BD00BF6C82FF1F70B582B006460C46FFF7FCF901A8FFF7B5FF019B23BB054644B9B042F2
:4018400006D3FFF775FA29463046FFF7BFFF1BE034B10E4B5B681B680BB9012400E000242246711B094B9868FFF7A2FEFFF760FA50B94FF08052064B1A60BFF34F8FBFF3D0
:401880006F8F01E0FFF754FA02B070BD6C82FF1F04ED00E030B587B059E0039B002B56DB059C636913B1201DFFF7D2FB02A8FFF777FF039B092B4AD8DFE803F005050526D0
:4018C0002D3C0505262D94F8243043F0010384F824300499A5690B46024629442046FFF79DFEA0B3236A2046984794F8243013F0040F2CD0A269002100910B46049802448C
:401900002046FFF7EFFE22E094F8243023F0010384F824301BE094F8243043F0010384F824300499A1610346024601442046FFF775FE0CE094F8243013F0020F03D1204655
:4019400000F0C6F803E023F0010384F82430002203A9044B9868FFF79BFD00289DD107B030BD00BF6C82FF1F00B583B001A8FFF745FE0199FFF756FFFFF78CFFF6E700BF73
:401980007222074B1A700023064A137006219F32117047211032117051321370704700BF8664004085640040084B1B78DBB213F0200F06D0064A1078C0B213F01E0F02D186
:4019C0007047002070470020704700BF656400404664004001BE704770B504460E46074B1D680F2802D90020FFF7F4FF04F00F0455F8240045F8246070BD00BF08ED00E0AB
:401A0000014B1B681864704708ED00E04001C0B2014B1870704700BF00E400E00122014B1A60704700E100E00122014B1A60704780E100E010B50446FFF7F6FF2046FFF776
:401A4000DFFF0720FFF7E2FFFFF7E8FF10BD00BF0230800803D000BF01380046FCD17047EFF3108072B6704780F31088704700BF38B5044610F0070F02D020F0070408348A
:401A8000FFF7D2F8104B1B682BB90F4A02F10C0323F0070313600D4BD3F814361C4442F2F772944208D8A34208D2074A15681D44064BC3F8144602E0002500E00025FFF743
:401AC00037F9284638BD00BFA882FF1F98A4FF1F704700BF014B1868704700BF3881FF1F0E4B70B51E460E4C0025E41AA410A54204D056F8253098470135F8E700F06CF8AA
:401B0000084B094C1E46E41AA4100025A54204D056F8253098470135F8E770BDE41B0000E41B0000E41B0000EC1B000010B5431E0A44914204D011F8014B03F8014FF8E7A5
:401B400010BD03460244934202D003F8011BFAE77047000000000000405100403000F05100401000000001400006800601408001800801400002000B014000050014014021
:401B8000000800400140000A004C0140000200500140200060520040C0090048060000060140C8090048800000080140480A00488000800A0140C80A0048800049444C4583
:401BC00000000000546D725100000000546D72205376630043000000F8B500BFF8BC08BC9E4670474D00000045050000F8B500BFF8BC08BC9E46704729000000101C0000B5
:401C0000C880FF1F78000000802A000000000000000000000203050000010000AAAAAAAA000000000000000000000000000000000000000000000000000000000000000069
:401C4000D41B000000000000000000000000000000000000000000000000000000000000000000000000000000000000000000000000000000000000000000000000000075
:401C8000D880FF1F000000000000000000000000000000000000000000000000000000000000000000000000000000000000000000000000000000000000000000000000AE
:401CC00000000000000000000000000000000000000000000000000000000000000000000000000000000000000000000000000000000000000000000000000000000000E4
:401D000000000000000000000000000000000000000000000000000000000000000000000000000000000000000000000000000000000000000000000000000000000000A3
:401D40000000000000000000000000000000000000000000000000000000000000000000000000000000000000000000000000000000000000000000000000000000000063
:401D80000000000000000000000000000000000000000000000000000000000000000000000000000000000000000000000000000000000000000000000000000000000023
:020000040003F7
:0200000480007A
:400000000652004006640040036500406002014035030140460401403F0501401B060140550701401808014049090140070A0140420B0140040D014065140140581501401D
:400040005916014043170140641801404E1901400C1B014002400140034101400542014002430140034501400346014002470140024801400B490140094C01400C4D014065
:40008000075001400151014001010860092018A019201C108372843C853C8672880F8B72850F870F8838002002120408061307010B0118101A2C243828383101320634380C
:4000C00036013E044060410345014620480949FF4AFF4BFF4DA04F045018580459045A045C035F01604062C06440654066C068C06AC06CC06EC0828084808507888789073F
:400100008A388CF98E068F0190869259967998FF9B03A004A402A501A702A806A905AB02AC09AD06AF01B008B216B304B407B6E0B703BAA8BBA0BF04C001C540C9FFCA0734
:40014000CBFFCC40CD20CEF0CF05D008D602D712D804D904DA04DB04DC33DD33DF01E040E1A8E240E320004001080388050806200740080109200A200E08108012021318BF
:400180001714182019B11B081D041E181F802004216022042601280129942A803210382439883F24420146104A204B024F2456105A0869546B14708073188C448D50C03FC7
:4001C000C24EC46FCA0ECC04CE6ED048D220D602050706040B070E0112041B031F0122012402280229072C022D022F0530013102320233013404350439203E11541C580486
:4002000059045B045C335D305F01810283048406880289DA8B258C118F08940796189725981999839A069B74A01FA619A758A806A983AA19AB6CAC04B1A0B20EB31FB40721
:40024000B560B610B902BA28BBA8BF01D41CD604D804D904DB04DC22DD20DF010048054406040B800D200E20108011541611172118141A201B011D301E22204822042518F7
:400280002602271129202A802F28329036083710382039083C803D2259015A085E025F086004630264406640670480809020915C9302962199219A809F40A220A710AA13C6
:4002C000B220B580C0E5C268C4FFCA6CCC6CCEB6D6C3D8BCE204E801EC8092019E02A202B002B401BE01C031C105C50BC6E0C7C0C829C9FFCAFFCBFFCEF0CF44D00CD2800F
:40030000D804DA04DB04DD01DF01E6C0EA40EB0204010571061009400A420C040E241080172118801B101C101D011E041F402440254427282E8834043510370138803A4032
:400340003C413D084020420245A04608470148114C804D204E015020510257405C10612062106C046D406F1072407504760580208102834087408A80902091149302960188
:400380009704980199109B019D449E559F68A110A232A440A501A688A738AF40B041B108B450C0F0C269C458CA50CCE0CED0D0BAD238D620E00DE604EA888411860E8B034B
:4003C0008E0C90209203980C9A13A011A206A608AD02AF01B030B101B40FB502B802BA20BF11D804D904DC01DF01032204040501060509010A040C080D200E4010201280DA
:4004000014A0160819021A041B021C801F0421012210244026802719280129402D2A351037053A183B083C203D033E84466047104E2957085C405E105F0982D08304852017
:4004400086108A208B4492029380960198A299419A459B029D28A008A114A208A410A601AF02B481B501C0F5C27AC47CCAE8CCE0CEF4D0E0D230D6F0E282E8501C01240135
:400480002801360158045C015F010401052806400701080209420C200E410F0411281441150117141A021D081E441F482502260827062C812D082F083001320134403520BF
:4004C000360137043C203E423F044420450146014C0957425E046DA87420760277118340854089018A088C818D088F10982099019A05A008A808B501C0F0C2D1C4F6CAF0E6
:40050000CCF0CEF0D0D0D230D640E608EC408C208E05E040E4500003022C04030634101A11021225170119041A181E08262528022A0430313302341F350437013A223F14BD
:400540004005454049FF4A074BFF4C404D204EF04F055008580459045A045C135D025F01604061A862406320801481408303848C8661882889718A458B888D028E088F01C5
:400580009024914392C993B0978099249B419D019F0EA550A68CA802A930AA60ABC7AF80B00CB17FB2E0B403B610B780B820BA0ABE40BF40C012C106C50EC7CBC831C9FF3B
:4005C000CAFFCBFFCEF0CF44D00CD401D804D904DA04DB04DC22DD22DF01E6C0EA40EB020004010204400520062007400A480B020C011008122014101604180419021C4072
:400600001D801F28210822402308274128102B202D202E082F0A302432013411360837403C403D203E203F01408043014401460448404A024B014C204D20520C54015501EC
:40064000560857025CA15F0882C08421880489088C218D80924A9302940498019D029E80A008A110A222A440A501A608A728A808AB20AD84AE02C0FCC21BC466CA70CCF702
:40068000CEB0D030D228D6F0E210E401E620EE0800220104024C04E7050309030C400EB014841501164A17021D021F0128E72C0130E0310332063401350436183E403F1004
:4006C000580459045C325F01804281408235830384418543863687B089508D718F88906391019214930E960297809B809C01A130A3C7A408A502A610A701A924AA23AB4180
:40070000B030B17FB203B380B40CB650B8A0BA0ABE40BF04C023C104C5E0C6B0C70CC81AC9FFCAFFCBFFCEF0CF44D00CD401D804D904DA04DB04DC33DD33DF01E6C0EA4084
:40074000EB0200040102044806800A520D081004122015401710188019241A591C401DE8210422012744288429263008322134203620374838A43B023D143F0140A449019D
:400780004B01501859815B2488018B08900891549302960198019B109D409E829F40A110A222A441A5A1A608A728A820AF04B010B410C0BCC22DC4C6CA07CC57CEEFD007AE
:4007C000D60FE480E801EA02000902D0030205040603080C0A710E201301141418101A401B011D06201022AC2308250628DC2A222B083106321F330134E0370839023A20B4
:400800003F454001464049FF4A074BFF4C404D204EF04F0550085418580459045A045B045C015D115F01604061A86240632084018606870188248A11930294379504983724
:400840009B019C129E21A408AE08B104B207B301B430B502B608BE40BF01C060C102C620C701C818C9FFCAFFCBFFCDA0CF04D018D280D804D904DA04DB04DC01DF01E0403B
:40088000E2C0E440E540E6C0E8C0EAC0ECC0EEC001280516060209140A010C200F10100112101480160819681D141F202008210122102320250827412F683105321034804F
:4008C00036A0370238083E0E3F024120450846A0474148044D014F025004512054205C0266A0710185408B209204939095019601980399029A109B029D38A114A2A0A308BC
:40090000A430A601A720AA90AB01AC40AD01B310B404C0F6C267C455CAE0CCB7CEC2D014D204D680D830E280E408ECC68201881089018A018F20910296019B20A410A6018E
:40094000AF01E6803380CC105A80A780D480A520A780AA40B120EE80A520B38001020720C00C850299029B2087209B208920A52009200A10668882108A808E08A520C25093
:40098000D680D880E0805C086302641087019818A808AC10D603D801108071087E0188808A018D08C408DC01DE04E004E408E601000F08090A0F0C0A100F1A0E1C030003EC
:4009C00080A00000400000003000080200093B227D00020019002208003B00000F087013203B1100000000007F0000000000003336004900000800043804043803024001F9
:400A000080002208000004006204050001C00E0006FFFFFF62A0F0410C00000000000211040404042222000100000000000040020010301000101012000000000000000060
:400A400000000000000000000C000215020A0C14080004400E8000000013010C06030814001301040000000000000E080E0000200C0002400000000001100E600080000F50
:400A8000000008800000011545060300020E000C11FFFFFF62A0F0410C000000010000000404040413110001000000000000400200103010001010120000000000000000E7
:400AC000000000000000000073100C000308000002240000081C00E11F006004001C00E20440000001FF00007F1800005C6023000CE70018000063632C600F00101F4C808F
:400B000000800A28000010003401050006000CE024FFFFFF62A0F0410C0000000000021204040404111300010000000000004002001030100010101200000000000000005A
:400B400000000000000000000001010001000000800040A0A000A0000000000000EBEB00E00000000300000000000000800050A0A000A00000000000000000000000000069
:400B80000000000000000000000000000000000000000000000000000000000000000000000000000000000000000000000000000000000000000000000000000000000035
:400BC00000000000000000000000000000000000000000000000000000000000000000000000000000000000000000000000000000000000000000000000000000000000F5
:400C000000000000000000000000000000000000000000000000000000000000000000000000000000000000000000000000000000000000000000000000000000000000B4
:400C40000000000000000000000000000000000000000000000000000000000000000000000000000000000000000000000000000000000000000000000000000000000074
:0200000490006A
:0400000000004005B7
:0200000490105A
:04000000BC90ACAF55
:0200000490303A
:020000002728AF
:0200000490402A
:4000000000000000000000000000000000000000000000000000000000000000000000000000000000000000000000000000000000000000000000000000000000000000C0
:400040000000000000000000000000000000000000000000000000000000000000000000000000000000000000000000000000000000000000000000000000000000000080
:400080000000000000000000000000000000000000000000000000000000000000000000000000000000000000000000000000000000000000000000000000000000000040
:4000C0000000000000000000000000000000000000000000000000000000000000000000000000000000000000000000000000000000000000000000000000000000000000
:0200000490501A
:0C00000000012E16106900012E2537911A
:00000001FF