:400000000080002011000000F9040000F904000008B5044B1A6803F53F5302331A6000F073FA00BFFA46004010B5054C237833B9044B13B10448AFF300800123237010BD10
:400040004081FF1F00000000641B0000084B10B51BB108490848AFF300800848036803B910BD074B002BFBD0BDE81040184700BF000000004481FF1F641B0000C880FF1F14
:400080000000000008B562B600F0C6F800F0A4FD002008BD0023C0F8CC30C0F8C830C0F8D030704730B4D0F8C840631CD0F8CC50AB420BD0032902D100EB44046254C0F8D2
:4000C000C830642B02D10023C0F8C83030BC704708B501F071FC89281DD00F4B1B680F4A134003D5013B63F001030133012B01D0002100E001218B2809D10022032108480C
:40010000FFF7D0FF044A13680133136008BD02460348FFF7C7FF08BD6081FF1F01000080E4AAFF1F08B501F033FC00F0E7FA034801F088FC0248FFF7ADFF08BDD100000095
:40014000E4AAFF1F094B0A4A1A600A4A5A600A4A9A600A4ADA600A4B0A4A1A600A4A5A600A4A9A600A4ADA60704700BFD4AAFF1F35060000CD05000051060000F50500004A
:40018000B0AAFF1FD50600006D060000F10600009506000008B510B1012804D008BD044B1B68984708BD034B1B68984708BD00BFD4AAFF1FB0AAFF1F08B5642900D9642141
:4001C00010B1012805D008BD044BDB680846984708BD034BDB680846984708BDD4AAFF1FB0AAFF1F38B5FFF7ADFF094C2079FFF7D1FF084D29782079FFF7DEFF6079FFF7EC
:40020000C9FF69786079FFF7D7FFFFF78BFF38BDCC80FF1F5C81FF1F08B500F083FAFFF7E1FF002203210A2001F032F8084B186000220221052001F02BF8064B18600022D7
:4002400002210A2001F024F8034B186008BD00BF54ABFF1F6CABFF1F58ABFF1FFEE700BFF0B40022174611E050F82760F3B226F0FF0608E001EB420511F812406D78A555CB
:400280000132013BDBB2002BF4D10137232FEBD9F0BC7047064B1B78DBB203F00701054A11701B09013213704422034B1A707047CF0100496E5800407658004008B50A465C
:4002C000002101F046FC08BD38B517222B4B1A8018232B4A1370332102321180023213704FF41C7227490A8002310B7002310A80254A13700222254B1A7008224FF040239A
:400300001A70032103F500731970214B1B78DBB220490B70204B1A8041F25122023B1A80002419250CE01D4B1B7803F0010343EA440404F003044FF4F07001F091FB013D1B
:400340000DB1032CEFD115B90320FFF787FF144B4FF480721A8007221A70002211490A704820023108701A700222033B1A700E4A137843F00F03137038BD00BF80400040A4
:4003800082400040884000408E4000400043004008010049A146004022420040254200400440004006400040A243004008B501F0C5FB08BD38B572B63A4A137843F004031E
:4003C000137000240CE0384D630019194A0011462A44084691882858FFF770FF0134E4B2062CF0D900240BE02F48A20011194B0003449A8E196BD86AFFF7D8FF0134E4B2C5
:40040000012CF1D929494FF09040FFF729FF284A137843F0020313701032137843F002031370244C237843F040032370A2F58632513A137843F01003137008221E491F48AC
:40044000FFF7B4FF0A221E491E48FFF7AFFF08221D491E48FFF7AAFF08221D491D48FFF7A5FF08221C491D48FFF7A0FF0A221C491C48FFF79BFF1C4A137843F00803137052
:400480001A4D61232B70FFF71FFF81232B700122174B1A70FFF7FEFE0E2221461548FFF785FF38BDE8460040681B00009000004803500140A04300406C0B0048025100402D
:4004C000740B0048C0510040800B0048F2510040880B004812510040900B004822510040980B004830510040224300400048004004000840B043004008B501F0F3FA03681C
:400500000C2B00D1FEE7FEE708B5104E104D16E029686B68AC68002204E051F8040B43F8040B0432A242F8D1E868002203E0002143F8041B04328242F9D11035013E002E32
:40054000E6D101F0D5FAFFF79DFDFEE701000000E81B000008B5104A104B1A60104A136843F40073136000230AE0032B03D80D4A52F8231000E00C490C4A42F82310013397
:400580002F2BF2D90A4B1A780A4B1A70074A0A4B1A60FFF70FFF08BD0004FA050CED00E014ED00E000000000F90400000080FF1FBC760040C080FF1F08ED00E0024A137893
:4005C00043F080031370704774650040024A137803F07F031370704774650040014B1870704700BF04650040014B1870704700BF44650040014B1870704700BF246500401A
:4006000008B50B4A137803F0C00343F0090313702032137843F0010313706320FFF7DEFF6320FFF7E1FF3220FFF7E4FF08BD00BF7465004008B5054B1B7823B9FFF7E0FF46
:400640000122024B1A70FFF7B9FF08BD6481FF1F014B1878704700BF24650040024A137843F080031370704779640040024A137803F07F031370704779640040014B187094
:40068000704700BF03640040014B1870704700BF43640040014B1870704700BF2364004008B50B4A137803F0C00343F0090313701A32137843F0010313706320FFF7DEFFDF
:4006C0006320FFF7E1FF3220FFF7E4FF08BD00BF7964004008B5054B1B7823B9FFF7E0FF0122024B1A70FFF7B9FF08BD6581FF1F014B1878704700BF236400407222074B14
:400700001A700023064A137006215E3A117047211032117002F5A87213707047876400408464004008B506490B2001F05DF905490E2001F059F904490F2001F055F908BD73
:40074000B1070000110800005508000082B0002301934FF0040383F31188BFF36F8FBFF34F8F019B002BFCD002B0704706480068006880F3088862B661B6BFF34F8FBFF33F
:400780006F8F00DF00BF000008ED00E04FF0807340F8043C21F0010140F8081C034B40F80C3C40F8202C4038704700BF4D070000074B19680868B0E8F00F80F30988BFF38B
:4007C0006F8F4FF0000080F311884EF00D0E70474082FF1F4FF0040383F31188BFF36F8FBFF34F8F024A136801331360704700BFD480FF1F034A1368013B13600BB983F324
:4008000011887047D480FF1F0000000000000000EFF30980BFF36F8F0D4B1A6820E9F00F10602DE908404FF0040080F3118800F0F3FA4FF0000080F31188BDE80840196846
:400840000868B0E8F00F80F30988BFF36F8F70474082FF1F08B54FF0040383F31188BFF36F8FBFF34F8F00F0F7F918B14FF08052024B1A60002383F3118808BD04ED00E08B
:40088000054B00221A6005490A6045F6BF51044A116007221A60704710E000E018E000E014E000E010B5094B1A681A601A681A60FFF7E6FF0024064B1C60FFF757FF00F09B
:4008C000ABFAFFF743FF204610BD00BF20ED00E0D480FF1F074B9B6A1B6823B94FF0FF32044BDA627047034B9A6AD2681268DA62704700BF6881FF1F10B50446006B01F038
:40090000EFF8204601F0ECF810BD00BF2DE9F84380469946089D099F0A9C236B02F18042013A03EB820626F0070641B90FE0D05CE11881F83400D15C29B1013301E00A46E2
:4009400000230F2BF3D9002384F8433002E0002384F83430042D00D90425E562201D00F055FB04F1180000F051FB2461C5F10505A561646200236364A364E364236563657E
:40098000A36584F85C304A4641463046FFF7FEFE206007B13C60BDE8F88300BF70B5002407E004EB840293001048184400F022FB0134042CF5D90E4C04F19406304600F07A
:4009C00019FB04F1A805284600F014FB04F1140000F010FB04F1BC0000F00CFB204600F009FBA662C4F8D05070BD00BF9881FF1F6881FF1F38B50446FFF7ECFE264BD3F86D
:400A0000D4200132C3F8D420D3F8D8304BB9224BC3F8D840D3F8D430012B10D1FFF7BEFF0DE01D4BD3F8DC304BB91B4BD3F8D830DA6AE36A9A4202D8174BC3F8D840164AF5
:400A4000D2F8E0300133C2F8E030E36AD2F8E420934202D9104AC2F8E4300F4D05F1300003EB83039A00211D104400F0D3FAFFF7C1FED5F8DC306BB1D5F8D830DA6AE36ABC
:400A80009A4207D24FF08052044B1A60BFF34F8FBFF36F8F38BD00BF6881FF1F04ED00E038B517E0FFF796FE0D4CD4F8C830DD68281D00F0D5FAD4F8D430013BC4F8D4303B
:400AC000D4F8E830013BC4F8E830FFF793FE2846FFF712FF024BD3F8E830002BE2D138BD6881FF1F08B5FFF7DBFF064B1B6B012BF9D94FF08052044B1A60BFF34F8FBFF37E
:400B00006F8FF0E76881FF1F04ED00E070B504460E46174BD3F8EC50D3F8D800043000F09FFAB4F1FF3F07D136B11148D0F8D810043100F06FFA70BD2C440D4BD3F8D8307B
:400B40005C60A54208D90A4BD3F8D000D3F8D810043100F06BFA70BD054DA86AD5F8D810043100F063FAEB6A9C4200D2EC6270BD6881FF1F2DE9F04385B006460F461546FB
:400B80009846900000F07CFF60B18146602000F077FF044610B1C0F8309004E0484600F09FFF00E000248CB10023039302940D9B01930C9B009343462A4639463046FFF731
:400BC000A5FE2046FFF716FF012001E04FF0FF3005B0BDE8F08300BF00B583B0124B019300230093802211491148FFF7C3FF012801D100F061FD012813D14FF0040383F337
:400C00001188BFF36F8FBFF34F8F0A4B4FF0FF32DA620122C3F8DC200022C3F8EC20FFF741FE03B05DF804FB5C82FF1FA81B0000E50A00006881FF1F034AD2F8F0300133BB
:400C4000C2F8F030704700BF6881FF1F014BD3F8EC0070476881FF1F2DE9F041374BD3F8F030002B5BD1354BD3F8EC700137C3F8EC7067B99A6AD3F8D0109962C3F8D020E6
:400C8000D3F8F8200132C3F8F820FFF723FE2B4BDB6A9F4205D24FF000083BE04FF0010801E04FF00008254B9B6A1B6823B94FF0FF32224BDA622DE0204B9B6ADB68DC68FE
:400CC00063689F4202D21D4AD36223E0261D304600F0C6F9A36A1BB104F1180000F0C0F9E36A164AD2F8E420934202D9134AC2F8E430124D05F1300003EB83039A0031467E
:400D0000104400F087F9E26AD5F8D830DB6A9A42C4D2C8E7094BD3F8FC304BB90AE0074AD2F800310133C2F800314FF0000801E04FF001084046BDE8F08100BF6881FF1FF2
:400D400070B5FFF747FD324BD3F8F020013AC3F8F020D3F8F030002B52D12D4BD3F8D4303BBB00244FE02A4D2B6ADC6804F1180000F076F9261D304600F072F9E36AD5F803
:400D8000E420934201D9C5F8E430214D05F1300003EB83039A003146104400F03BF9E26AD5F8D830DB6A9A4204D30122C5F8FC2000E00024164B5B69002BD4D10CB1FFF75D
:400DC00089FD134BD3F8004164B1FFF745FF18B101220F4BC3F8FC20013CF6D100220C4BC3F800210A4BD3F8FC305BB14FF08052084B1A60BFF34F8FBFF36F8F012402E0C1
:400E0000002400E00024FFF7F5FC204670BD00BF6881FF1F04ED00E01E4BD3F8F03023B101221C4BC3F8FC2070471A4B0022C3F8FC20D3F8E43000E0013B03EB83018A00E4
:400E400014490A44126B002AF6D010B40A469900CC18A0001044446B6468446302F1300019448A0008320244944206D1606803EB83018A0007490A445063064903EB8300A7
:400E800082000A44526BD268C1F8D820C1F8E43010BC70476881FF1F10B50C46054BD3F8D810183100F0C2F801212046FFF72EFE10BD00BF6881FF1F38B50D461446074B2D
:400EC000D3F8D810183100F0A5F80CB14FF0FF3521462846FFF71AFE38BD00BF6881FF1F38B5C368DC6804F11805284600F0B8F8154BD3F8F030ABB9251D284600F0B0F828
:400F0000E36A114AD2F8E420934202D90E4AC2F8E43003EB83039A0029460C48104400F079F803E029460A4800F074F8E26A064BD3F8D830DB6A9A4204D90120024BC3F848
:400F4000FC0038BD002038BD6881FF1F9881FF1F7C81FF1F034BD3F8F8200260D3F8EC30436070476881FF1FF8B504460D46FFF731FC134BD3F8EC106268881A2B68B3F102
:400F8000FF3F18D027680E4ED6F8F860B74205D0914203D300232B6001240DE0984206D21B1A2B602046FFF7D5FF002404E000232B60012400E00024FFF71CFC2046F8BD19
:400FC0006881FF1F0122024BC3F8FC20704700BF6881FF1F064BD3F8DC302BB1044BD3F8F0301BB90220704701207047002070476881FF1F00F1080343604FF0FF32826094
:40100000C360036100230360704700BF00230361704700BF43684B609A688A609A68516099600861036801330360704730B40D68B5F1FF3F01D1026907E000F1080200E0E4
:401040001A4653681C68A542FAD253684B6099608A605160086103680133036030BC704703694268816891608268416851605A68904201D182685A60002202611A68013A96
:401080001A601868704700BF10B50446FFF7A2FBA26BE36B9A4201D1012400E00024FFF7A9FB204610BD00BF10B50446FFF792FBA36B0BB9012400E00024FFF79BFB2046E1
:4010C00010BD00BF70B504461646856B026CFAB166B9406800F032FD6268236C13446360A268934214D32368636011E0C06800F025FD236C5B42E2681A44E26021688A428D
:4011000002D2A2681344E360022E01D105B1013D0135A563002070BD70B582B00190846CA26BE36B9A4218D294F845506DB2002201A92046FFF7C6FF0646B5F1FF3F07D188
:40114000636A6BB104F12400FFF7CAFE38B907E001356DB284F8455002E0002600E00126304602B070BD00BF026C72B110B5C3681344C3608468A34201D30368C3600C46CE
:40118000C168204600F0DAFC10BD704738B50546FFF720FB95F8454064B213E0AB6C33B12846FFF7B9FF58B1FFF70CFF08E06B6A53B105F12400FFF793FE08B1FFF702FFBF
:4011C000013C64B2002CE9DCFF2385F84530FFF711FBFFF7FFFA95F8444064B20AE02B6953B105F11000FFF77BFE08B1FFF7EAFE013C64B2002CF2DCFF2385F84430FFF79B
:40120000F9FA38BD38B504460D46FFF7E3FA2168E26B236C03FB0210A0600020A0636160013A02FB0313E360FF2384F8443084F845307DB92369ABB104F11000FFF750FE15
:4012400080B14FF08052094B1A60BFF34F8FBFF36F8F07E004F11000FFF7CCFE04F12400FFF7C8FEFFF7C6FA012038BD04ED00E010B5029C0B4609B9246000E02260E06361
:40128000236401212046FFF7BDFF0023A36410BDF0B583B005460E46174601FB00F04C3000F0EEFB044638B100903B4600F14C0231462846FFF7DCFF204603B0F0BD00BFA3
:4012C000F0B585B004460F4601921E460025FFF781FAA26BE36B9A4201D3022E34D1A56B324639462046FFF7EDFEA36C7BB1022E00D12DBB2046FFF70FFF08B34FF0805200
:401300003A4B1A60BFF34F8FBFF36F8F18E0636A6BB104F12400FFF7E3FD88B14FF08052324B1A60BFF34F8FBFF36F8F08E038B14FF080522D4B1A60BFF34F8FBFF36F8F09
:40134000FFF758FA01204EE0019B1BB9FFF752FA002048E01DB902A8FFF7FCFD0125FFF749FAFFF769FCFFF735FA94F844305BB2B3F1FF3F02D1002384F8443094F84530B8
:401380005BB2B3F1FF3F02D1002384F84530FFF731FA01A902A8FFF7E7FDF0B92046FFF773FEA0B1019904F11000FFF775FD2046FFF7ECFEFFF7C4FC002888D14FF08052AC
:4013C0000A4B1A60BFF34F8FBFF36F8F7FE72046FFF7DCFEFFF7B4FC79E72046FFF7D6FEFFF7AEFC002005B0F0BD00BF04ED00E02DE9F843EFF311874FF0040484F3118838
:40140000BFF36F8FBFF34F8F856BC46BA54201D3022B33D11E469046054690F8454064B2D0F838901A46FFF74DFEB4F1FF3F1FD1AB6C7BB1022E02D1B9F1000F20D1284657
:40144000FFF76AFEF0B1B8F1000F1DD00120C8F8000020E06B6ACBB105F12400FFF740FDB0B1B8F1000F15D00120C8F8000012E0013464B285F8454001200CE000200AE014
:40148000012008E0012006E0012004E0012002E0012000E0012087F31188BDE8F88300BFF0B585B004460F4601920026FFF792F9A56BC5B139462046FFF756FE013DA56352
:4014C000236963B104F11000FFF70AFD38B14FF08052304B1A60BFF34F8FBFF36F8FFFF789F9012053E0019B1BB9FFF783F900204DE01EB902A8FFF72DFD0126FFF77AF9EF
:40150000FFF79AFBFFF766F994F844305BB2B3F1FF3F02D1002384F8443094F845305BB2B3F1FF3F02D1002384F84530FFF762F901A902A8FFF718FDF0B92046FFF7B4FDB9
:40154000A0B1019904F12400FFF7A6FC2046FFF71DFEFFF7F5FB0028A8D14FF080520D4B1A60BFF34F8FBFF36F8F9FE72046FFF70DFEFFF7E5FB99E72046FFF707FEFFF714
:40158000DFFB2046FFF790FD00288FD0002005B0F0BD00BF04ED00E000230BE0074A52F8332032B9054A42F8331002EBC303586070470133092BF1D9704700BF70ABFF1F19
:4015C00070B504460D461646FFF704F994F844305BB2B3F1FF3F02D1002384F8443094F845305BB2B3F1FF3F02D1002384F84530FFF700F9A36B2BB93246294604F124004D
:40160000FFF75AFC2046FFF7C1FD70BD064B1A6813680BB9012300E00023036013B9D36818687047002070476C82FF1F08B54160006191420AD8D21A83699A4211D2011D31
:401640000A4B5868FFF7F2FC002008BD9A4201D2994208D2011D054B1868FFF7E7FC002008BD012008BD012008BD00BF6C82FF1F70B5FFF7AFF80E4B9B68B3B90C4C04F10E
:401680000C063046FFF7B6FC04F120052846FFF7B1FC2660656000220C210A20FFF7F8FDA06010B10349FFF777FFFFF7A3F870BD6C82FF1FB01B000000B583B0FFF7D8FF5D
:4016C000084B9B6853B1084B0193032300930023802206490648FFF74DFA00E0002003B05DF804FB6C82FF1FA082FF1FB81B00007919000030B585B0134CA56805B31C46F9
:40170000019102920390052913DCFFF763FC022807D10023089A01A90B488068FFF7D0FD0FE000231A4601A907488068FFF7C8FD07E00023224601A92846FFF759FE00E04A
:40174000002005B030BD00BF6C82FF1F70B582B021E0DB681E68DC68251D2846FFF780FC236A2046984794F8243013F0040F12D0A36933449E4207D26360246129460B4B62
:401780001868FFF753FC06E0002100910B4632462046FFF7AFFF054B1B681A68002AD8D1024A51681160536002B070BD6C82FF1F38B50546FFF74AFA0446074B9B6B9842CF
:4017C00004D2FFF7C3FF01232B6001E000232B60014B9C63204638BD6C82FF1F70B582B005460E46124B1B68DB68DC68201DFFF737FC94F8243013F0040F0FD0A1692B4658
:40180000324629442046FFF711FF58B1002100910B462A462046FFF76DFF03E023F0010384F82430236A2046984702B070BD00BF6C82FF1F70B582B006460C46FFF7FCF9ED
:4018400001A8FFF7B5FF019B23BB054644B9B04206D3FFF775FA29463046FFF7BFFF1BE034B10E4B5B681B680BB9012400E000242246711B094B9868FFF7A2FEFFF760FAF0
:4018800050B94FF08052064B1A60BFF34F8FBFF36F8F01E0FFF754FA02B070BD6C82FF1F04ED00E030B587B059E0039B002B56DB059C636913B1201DFFF7D2FB02A8FFF702
:4018C00077FF039B092B4AD8DFE803F0050505262D3C0505262D94F8243043F0010384F824300499A5690B46024629442046FFF79DFEA0B3236A2046984794F8243013F032
:40190000040F2CD0A269002100910B46049802442046FFF7EFFE22E094F8243023F0010384F824301BE094F8243043F0010384F824300499A1610346024601442046FFF7E3
:4019400075FE0CE094F8243013F0020F03D1204600F0C6F803E023F0010384F82430002203A9044B9868FFF79BFD00289DD107B030BD00BF6C82FF1F00B583B001A8FFF72B
:4019800045FE0199FFF756FFFFF78CFFF6E700BF7222074B1A700023064A13700621A532117047211032117051321370704700BF8564004081640040084B1B78DBB213F092
:4019C000200F06D0064A1078C0B213F01E0F02D17047002070470020704700BF616400404164004001BE704770B504460E46074B1D680F2802D90020FFF7F4FF04F00F0455
:401A000055F8240045F8246070BD00BF08ED00E0014B1B681864704708ED00E04001C0B2014B1870704700BF00E400E00122014B1A60704700E100E00122014B1A6070471A
:401A400080E100E010B50446FFF7F6FF2046FFF7DFFF0720FFF7E2FFFFF7E8FF10BD00BF0230800803D000BF01380046FCD17047EFF3108072B6704780F31088704700BF69
:401A800038B5044610F0070F02D020F007040834FFF7D2F8104B1B682BB90F4A02F10C0323F0070313600D4BD3F814361C4442F2F772944208D8A34208D2074A15681D4435
:401AC000064BC3F8144602E0002500E00025FFF737F9284638BD00BFA882FF1F98A4FF1F704700BF014B1868704700BF3881FF1F0E4B70B51E460E4C0025E41AA410A54201
:401B000004D056F8253098470135F8E700F05AF8084B094C1E46E41AA4100025A54204D056F8253098470135F8E770BDD01B0000D01B0000D01B0000D81B000010B5431EBC
:401B40000A44914204D011F8014B03F8014FF8E710BD03460244934202D003F8011BFAE7704700000000000040510040300000000140800000010140000F001401400008CF
:401B800000400140000A004C01400002005001402000000060520040E40A0048060080000140EC0A0048800049444C4500000000546D725100000000546D7220537663008C
:401BC00043000000F8B500BFF8BC08BC9E4670474D00000055050000F8B500BFF8BC08BC9E46704729000000F81B0000C880FF1F78000000802A000000000000020305002F
:401C000000010000AAAAAAAA0000000000000000000000000000000000000000000000000000000000000000C01B0000000000000000000000000000000000000000000020
:401C400000000000000000000000000000000000000000000000000000000000000000000000000000000000D880FF1F0000000000000000000000000000000000000000EE
:401C80000000000000000000000000000000000000000000000000000000000000000000000000000000000000000000000000000000000000000000000000000000000024
:401CC00000000000000000000000000000000000000000000000000000000000000000000000000000000000000000000000000000000000000000000000000000000000E4
:401D000000000000000000000000000000000000000000000000000000000000000000000000000000000000000000000000000000000000000000000000000000000000A3
:401D40000000000000000000000000000000000000000000000000000000000000000000000000000000000000000000000000000000000000000000000000000000000063
:020000040003F7
:0200000480007A
:400000000652004005640040046500400C0001403701014060020140420301405404014046050140620601404A0701404E0801403B090140020B0140010D01406B1401400E
:400040004A15014060160140531701405718014051190140101B01400440014002410140014201400643014002440140054501400346014001470140094801400849014057
:400080000A4C0140084D014007500140015101400001088009A0198078027C01813C843C857287728838860F870F8872890F05010A010B020E010F023301350236013F1409
:4000C000580459045F0100900520062207800C080D220E0117051A021C421D061E051F0220042204240125242620278028082B082E402F143104330435043620378138A0F0
:400100003A043C423D1845014784480149804C084D90560157105C015E04644867028440C0F3C2F0C430CA70CCF0CEFED0D0D230D6C0D8B0013F08840A4A0B161119132487
:4001400014E6153F1C401EB02022224C230124E629012A012D092E012F3230183110320133203406350836E0370739083B803E053F10580459045C235F01842F8506870148
:40018000881089048B0A8C048D0B8E298F1492049410950F9710991F9A209E23A004A404A516A62AA709A82FA919AB06AC10AF1FB008B220B318B407B507B610B802BA20CA
:4001C000BB28C030C105C510C720C822C9FFCAFFCBFFCDA0CF04D018D804D904DA04DC33DF01E040E2C0E440E540E6C0E8C0EAC0ECC0EEC002220304051009200A920E1136
:4002000010101140120813021480150416011726188019881A021B201C401D101E011F082120231425012769281429802A102B202F4632383504370138403B143C023D1084
:400240004010484250029004920894B095109640972A99049A019D209E269F01A001A312A440A501A708B201C047C2AFC4FFCABECCC6CEAED002D208010404010539070637
:4002800009260B190D0914011507173818011902220225062801293F2E022F393002310833073401351637203A083B283E11406541024201440446E047C0482849FF4AFF98
:4002C0004BFF4C624DA04EF04F41500C541C580459045A045B045C335D335F016640670269106A306B106D106E106F1285048B088F0C91089305950496019709990C9B0178
:40030000A902AE01B001B50CB703B980BB20BE01D602D712D804D904DB04DC20DD20DF0102100320080809200A200F2010021288174019101A201B011F0121642289255024
:4003400026102702280829842F08302436243701384039083A103B013DA03E04404841404404452049804A08501259085A025F08600463026C016F1475207622904492081B
:400380009430955496F097AA99889B489C849D209E26A330A608AE12C004C226C48BCA2ECCE6CE7FD00DD20CD643D80C02020404060A0A011004120A14041501160A18106C
:4003C000260A3002320134103501360C38803E513F104001450449FF4A074BFF4C404D204EF04F055008580459045A045D035F01604061A862406320841A8685870389095C
:400400008A188BD08C408D108F4090609403969497209860990C9B719C039E8CA002A1DCA204A322A514A608AA20AD10AE85AFACB060B31FB41FB5E0B691B802BAA0BB2027
:40044000BE01C004C604C9FFCA07CBFFCC40CD20CEF0CF05D008D602D711D804D904DA04DB04DC13DD31DF01E040E1A8E240E3200004020B04240640080509210A020C04B6
:400480000E040FA010081180124013041610184019A01A021B501C181D801E802124270828212A0130083120350838803928404045804F04504C56105720591069446A10D4
:4004C0007020710473018024840488088920900292089410955496D497A9988099109B169D049E049F01A210A420A624A708AC80C077C27FC42FCA0BCC46CE0ED011D60462
:40050000E401E604011F020403600418055C07230808097F0CE70D030E181060110114FF1502181C190C1AE21C1C1D731EE11F0C20242108244025042A632B632C10306027
:40054000312C32803310341F354C370F38083A203B823F044021410346BC47E0482C49FF4AFF4BFF4EF04F44500C5418580459045A045B045C115D115F0166C06A406B02D1
:40058000820183018F019A019B02AB02B102B301B401BE10BF05D280D804D904DB04DF0102400501060807210B080E140F4215181602170619101E841F042010210225215A
:4005C0002684270128012B062D102E0A301031203680372638403A013C803D023E143F42450246A04750540157A25C0265106680724078027A408201836088018A2190401A
:40060000C0F8C2F2C4F0CAE4CCF4CEF9D070D680D830E280E4809040B440E8200523071409080A010B100F0212021404172319012501260127362D022F3530013103320254
:40064000330C3530360439083B223E404030410645014702481149FF4AFF4BFF4DA04F0450185280580459045A045B045C305F01604062C06440654066C068C06AC06CC07B
:400680006EC08050830884808C308E479103936C94029503960197749801995A9A0E9B259C409E03A024A241A358A471A502A608A704A843AA30AB25B080B104B31FB47F12
:4006C000B560B731BBA8BE01BF01C023C104C6CBC70EC81CC9FFCAFFCBFFCEF0CF44D00CD804D904DA04DC22DD02DF01E6C0EA40EB0200100640071108080A400C800E2589
:4007000010201440172A18101B811E041F01204422082624276929802B102C502E202F28321833103624370138443A103E01401046204721482850085644572072408380B1
:400740008F01922094449604980899809A109B029C109E049F41A080A210A318A62CA701AD10AE02AF04B240B310B402B504B602C0B2C2ECC474CAEACCE6CE8ED0E2D204F2
:40078000E240E404EA02000408420A210C110E2A10201101125013021501170219011B02247728772B023070320433033403360839083F044002454049FF4A074BFF4C40B4
:4007C0004D204EF04F0550085401580459045A045B045C025D325F01604061A862406320847185018608870688438A308B0C8C028E018F08910C93039401960E9703984078
:4008000099019A039B0E9E80A450A824AA41AC30AE47B080B10FB27FBB02C062C105C50EC6BCC80DC9FFCAFFCBFFCEF0CF44D00CD401D804D904DA04DB04DC13DD23DF012C
:40084000E6C0EA40EB020044012004020510060208800A200B040E4010201208134017141AA01D101E501F50220227202F0830083120320236243701388839203D103E10F3
:400880004320472049AC4B404C8050205240570858115A085B405C025E805F186401668087018C048D018E849082920893049404953096C497A8988899A09A109B1E9D080B
:4008C0009E449F01A008A120A250A330A501A62EA708AD40AE10B104B410C0D7C217C467CA20CCE7CE0ED024D20CD6FF013303040A050F0811401315160419331B0C2103B5
:4009000023142A022D0A2F343001330F34063510376039803B083E103F104046410542034402460E470C481449FF4AFF4BFF4C624DA04EF04F41500C560257125804590424
:400940005A045B045C115D115F016640670269106A306B106D106E106F12814083208514870989018B068C018D208F40951F9801991FA002A50AA711A801B002B140B31890
:40098000B401B507B720BA08BE01BF41D401D804D904DB04DC11DD10DF010140052006040A040F10108815201A181B011D212114224123102418254027102A042E802F8023
:4009C0003008332036013710384039283A013D803E014410452047014D104E065640570458A95E086C086D406E046F20760A77208020824083808C108E12904092019518EA
:400A0000961098119A019B019D019E4A9F32A080A205A380A440A704AA01B080B410B640C041C222C44ACA92CCA6CE9FD0E0D230D64FE210E401EA04EC80EE408008870157
:400A400089208B029C089D209F02A301AD40AE01B040B110B484B680E408EC1231408540CC10E6105780D440A78087089602A780AE01E640EC407340DC0101080710B340E9
:400A8000C00CE8049B10B508EA029B100320570887809602A308A780C010D440E6100A0263088F049602AF20C240D840EC105904632066088104A310AB10B710D602D80370
:400AC000E8081010740184018810AE08C408DE04E204000F080D0A0F0C03100F1A0F1C02000300008080000040000000019F00000604000A0200009F04190086071618895F
:400B0000008F1910000610011F8B0014060019001900062000000020000000400E6007181007008000008A2800000001360504000100C0E028FFFFFF62A0F0410C0000004F
:400B40001C000400040404042222000100000000000040020010301000101012000000000000000000000000000000000001010001000000800040A0A000A0000000000099
:400B8000010202000200000000EBEB00E000000003000000000000008000408080008000000000000000000000000000000000000000000000000000000000000000000035
:400BC00000000000000000000000000000000000000000000000000000000000000000000000000000000000000000000000000000000000000000000000000000000000F5
:400C000000000000000000000000000000000000000000000000000000000000000000000000000000000000000000000000000000000000000000000000000000000000B4
:400C40000000000000000000000000000000000000000000000000000000000000000000000000000000000000000000000000000000000000000000000000000000000074
:400C80000000000000000000000000000000000000000000000000000000000000000000000000000000000000000000000000000000000000000000000000000000000034
:0200000490006A
:0400000000004005B7
:0200000490105A
:04000000BC90ACAF55
:0200000490303A
:02000000358346
:0200000490402A
:4000000000000000000000000000000000000000000000000000000000000000000000000000000000000000000000000000000000000000000000000000000000000000C0
:400040000000000000000000000000000000000000000000000000000000000000000000000000000000000000000000000000000000000000000000000000000000000080
:400080000000000000000000000000000000000000000000000000000000000000000000000000000000000000000000000000000000000000000000000000000000000040
:4000C0000000000000000000000000000000000000000000000000000000000000000000000000000000000000000000000000000000000000000000000000000000000000
:0200000490501A
:0C00000000012E16106900012E2545ECB1
:00000001FF